:100000000C9462000C948A000C948A000C948A0070
:100010000C948A000C948A000C948A000C948A0038
:100020000C948A000C948A000C948A000C94550558
:100030000C948A000C948A000C948A000C948A0018
:100040000C940B050C948A000C94D9040C94B30402
:100050000C948A000C948A000C948A000C948A00F8
:100060000C948A000C948A000000000024002700F1
:100070002A0000000000250028002B0000000000DE
:1000800023002600290004040404040404040202DA
:100090000202020203030303030301020408102007
:1000A0004080010204081020010204081020000012
:1000B0000008000201000003040700000000000027
:1000C0000000110611241FBECFEFD8E0DEBFCDBF68
:1000D00011E0A0E0B1E0E4E6F3E102C005900D928A
:1000E000AE3BB107D9F722E0AEEBB1E001C01D9203
:1000F000A53BB207E1F710E0C2E6D0E004C02197CB
:10010000FE010E94AA09C136D107C9F70E949906CB
:100110000C94B0090C9400008F929F92AF92BF9202
:10012000FF920F931F93CF93DF93F090B2022BE0D7
:100130002F1508F44CC02091B40208E512E0021B10
:10014000110927FD1395000F111F000F111F20919A
:10015000B302C8E8D0E0C21BD10927FDD395CC0F6C
:10016000DD1FCC0FDD1F4E010D2E000CAA08BB08B1
:100170009801012E000C440B550B281939094A0926
:100180005B09DC010E94650924EB30E040E050E0AF
:100190000E943B09820E931EA41EB51E8C169D065E
:1001A0002CF0E801801691060CF4E4012297CC0FA4
:1001B000DD1F2FB7F8948F2D90E0FC01EE0FFF1F8D
:1001C000E80FF91FEB58FD4FD283C1832FBFDF919A
:1001D000CF911F910F91FF90BF90AF909F908F9004
:1001E0000895AF92BF92CF92DF92EF92FF920F935A
:1001F0001F93CF93DF936C017B018B01040F151FBD
:10020000EB015E01AE18BF08C017D10759F0699124
:10021000D601ED91FC910190F081E02DC601099588
:10022000892B79F7C501DF91CF911F910F91FF9035
:10023000EF90DF90CF90BF90AF900895FC01538D69
:10024000448D252F30E0842F90E0821B930B5417B0
:1002500010F0CF96089501970895FC01918D828D3D
:10026000981761F0A28DAE0FBF2FB11D5D968C91D6
:10027000928D9F5F9F73928F90E008958FEF9FEF15
:100280000895FC01918D828D981731F0828DE80FD1
:10029000F11D858D90E008958FEF9FEF0895FC018B
:1002A000918D228D892F90E0805C9F4F821B910958
:1002B0008F739927089588ED91E00E944F0121E006
:1002C000892B09F420E0822F089580E090E0892BAB
:1002D00029F00E945B0181110C9400000895FC013B
:1002E000A48DA80FB92FB11DA35ABF4F2C91848D97
:1002F00090E001968F739927848FA689B7892C93F4
:10030000A089B1898C91837080648C93938D848D46
:10031000981306C00288F389E02D80818F7D808349
:100320000895EF92FF920F931F93CF93DF93EC0109
:1003300081E0888F9B8D8C8D98131AC0E889F9898C
:10034000808185FF15C09FB7F894EE89FF8960838F
:10035000E889F98980818370806480839FBF81E010
:1003600090E0DF91CF911F910F91FF90EF90089552
:10037000F62E0B8D10E00F5F1F4F0F731127E02E2D
:100380008C8D8E110CC00FB607FCFACFE889F98965
:10039000808185FFF5CFCE010E946F01F1CFEB8DFB
:1003A000EC0FFD2FF11DE35AFF4FF0829FB7F89439
:1003B0000B8FEA89FB8980818062CFCFCF93DF9357
:1003C000EC01888D8823B9F0AA89BB89E889F9896D
:1003D0008C9185FD03C0808186FD0DC00FB607FCA2
:1003E000F7CF8C9185FFF2CF808185FFEDCFCE01D5
:1003F0000E946F01E9CFDF91CF910895833081F0A2
:1004000028F4813099F08230A9F008958730A9F05E
:100410008830C9F08430B1F4809180008F7D03C0B2
:10042000809180008F7780938000089584B58F77C6
:1004300084BD089584B58F7DFBCF8091B0008F7708
:100440008093B00008958091B0008F7DF9CFCF9355
:10045000DF93282F30E0F901E255FF4F8491F90135
:10046000E656FF4FD491F901EA57FF4FC491CC23D0
:10047000A1F081110E94FE01EC2FF0E0EE0FFF1FB2
:10048000E458FF4FA591B491EC91ED2381E090E009
:1004900009F480E0DF91CF91089580E090E0FACFF9
:1004A0001F93CF93DF93282F30E0F901E255FF4FE0
:1004B0008491F901E656FF4FD491F901EA57FF4FB5
:1004C000C491CC23A9F0162F81110E94FE01EC2FBC
:1004D000F0E0EE0FFF1FEE58FF4FA591B4918FB7DC
:1004E000F894EC91111108C0D095DE23DC938FBFF6
:1004F000DF91CF911F910895DE2BF8CFCF93DF933B
:1005000090E0FC01E656FF4F24918A579F4FFC0173
:1005100084918823D1F090E0880F991FFC01E8595D
:10052000FF4FA591B491FC01EE58FF4FC591D491B6
:1005300061110EC09FB7F8948C91E22FE0958E2345
:100540008C932881E223E8839FBFDF91CF910895A8
:100550008FB7F894EC91E22BEC938FBFF6CF3FB7B7
:10056000F8948091C4019091C501A091C601B09109
:10057000C70126B5A89B05C02F3F19F00196A11D04
:10058000B11D3FBFBA2FA92F982F8827BC01CD01DD
:10059000620F711D811D911D42E0660F771F881F3C
:1005A000991F4A95D1F70895089590E080E0089545
:1005B000CF93DF93EC0160E08E810E94500261E0F6
:1005C0008E810E94500260E08E810E9450028BE872
:1005D00091E00197F1F7DF91CF910895CF92DF92EB
:1005E000EF92FF920F931F93CF93DF936C017C01E7
:1005F00087E0E80EF11CD0E0C0E0062F10E0B80163
:100600000C2E02C0759567950A94E2F76170F701A8
:1006100081917F010E9450022196C430D10579F763
:10062000C601DF91CF911F910F91FF90EF90DF9066
:10063000CF900C94D802CF92DF92EF92FF920F935B
:100640001F93CF93DF93EC01F62E642F8C810E94D1
:1006500050028D818F3F19F060E00E9450020F2DF3
:1006600010E08F8584FF25C06E0187E0C80ED11C85
:10067000F12CE12CB8010E2C02C0759567950A94F7
:10068000E2F76170F60181916F010E945002FFEF65
:10069000EF1AFF0A88E0E816F10461F7CE01DF9156
:1006A000CF911F910F91FF90EF90DF90CF900C941E
:1006B000D802B80184E0759567958A95E1F7CE0177
:1006C0000E94EE026F2DCE01DF91CF911F910F910D
:1006D000FF90EF90DF90CF900C94EE0240E0682FF7
:1006E0008AE992E00C941B03CF93DF93823029F4C4
:1006F0009091A90298609093A9028093AD02109204
:10070000AE0280E48093AF0280E18093B00280E586
:100710008093B10261E080919E020E947E028091EE
:100720009F028F3F19F061E00E947E0261E080919C
:10073000A0020E947E02CAE9D2E09E012A593240FC
:100740008091A90284FD0BC084E090E021962817D7
:10075000390744F461E08E810E947E02EECF88E08A
:1007600090E0F4CF8BE39DE00197F1F760E080919A
:100770009E020E94500260E08091A0020E945002FE
:1007800080919F028F3F19F060E00E94500280919B
:10079000A90284FD39C063E08AE992E00E94EE027A
:1007A000CBE4D6E4CE010197F1F763E08AE992E069
:1007B0000E94EE022197F1F763E08AE992E00E943D
:1007C000EE0283E592E00197F1F762E08AE992E0B8
:1007D0000E94EE028091A90280620E946E0384E072
:1007E0008093AA028CE00E946E0381E00E946E0357
:1007F0008BE39FE10197F1F782E08093AB0286E003
:10080000DF91CF910C946E0380620E946E038BE4A3
:1008100096E40197F1F78091A90280620E946E032D
:1008200083E592E00197F1F78091A90280620E942E
:100830006E03D0CF41E00E941B0381E090E0089559
:10084000FB0101900020E9F73197AF01461B570BE0
:10085000DC01ED91FC910280F381E02D09948F92EF
:100860009F92AF92BF920F931F93CF93DF93CDB719
:10087000DEB7A1970FB6F894DEBF0FBECDBF19A2A9
:10088000423008F44AE08E010F5D1F4F842E912CF8
:10089000B12CA12CA50194010E946D09E62FB9018C
:1008A000CA01EA3004F5E05DD801EE938D01232BF7
:1008B000242B252B79F790E080E0109729F0BD01DB
:1008C00088ED91E00E942004A1960FB6F894DEBF57
:1008D0000FBECDBFDF91CF911F910F91BF90AF9011
:1008E0009F908F900895E95CDFCFCF92DF92EF92D7
:1008F000FF92CF93DF936B017C016DE288ED91E075
:100900000E949101EC0166277727CB016C197D09C4
:100910008E099F094AE00E942F048C0F9D1FDF91D2
:10092000CF91FF90EF90DF90CF900895BC01990F89
:10093000880B990B97FD0C9475044AE00C942F04D6
:10094000CF93DF93BC0188ED91E00E942004EC017D
:100950006EE171E088ED91E00E9420048C0F9D1FF4
:10096000DF91CF9108951F920F920FB60F9211242D
:100970002F933F934F935F936F937F938F939F93A7
:10098000AF93BF93EF93FF9388ED91E00E946F01C7
:10099000FF91EF91BF91AF919F918F917F916F9157
:1009A0005F914F913F912F910F900FBE0F901F902D
:1009B00018951F920F920FB60F9211242F938F93B9
:1009C0009F93EF93FF93E091E801F091E90180811B
:1009D000E091EE01F091EF0182FD1BC090818091CA
:1009E000F1018F5F8F732091F201821741F0E09146
:1009F000F101F0E0E852FE4F958F8093F101FF91F5
:100A0000EF919F918F912F910F900FBE0F901F909C
:100A100018958081F4CF1F920F920FB60F92112478
:100A20002F933F938F939F93AF93BF938091C00178
:100A30009091C101A091C201B091C3013091BF0159
:100A400023E0230F2D3758F50196A11DB11D2093EA
:100A5000BF018093C0019093C101A093C201B093E4
:100A6000C3018091C4019091C501A091C601B091CC
:100A7000C7010196A11DB11D8093C4019093C501CA
:100A8000A093C601B093C701BF91AF919F918F9181
:100A90003F912F910F900FBE0F901F90189526E851
:100AA000230F0296A11DB11DD2CF1F920F920FB638
:100AB0000F9211242F933F934F935F936F937F93E4
:100AC0008F939F93AF93BF93CF93DF93EF93FF9356
:100AD0008091BE01C0919902D0E087FF24C010929E
:100AE0008500109284008091BE018F5F8093BE01CB
:100AF0008091BE01082E000C990B8C179D0724F4E1
:100B00008091BE018C30C4F1809184009091850069
:100B1000049680349C4908F47AC0809184009091B6
:100B20008500049676C08091BE01082E000C990BBA
:100B30008C179D07C4F6E091BE018E2FEE0F990B26
:100B4000FC01EE0FFF1FE80FF91FEB58FD4F8081EE
:100B500086FFC9CFE091BE018E2FEE0F990BFC01ED
:100B6000EE0FFF1FE80FF91FEB58FD4F808160E08B
:100B70008F730E945002B7CF20918400309185007E
:100B8000E091BE018E2FEE0F990BFC01EE0FFF1FBF
:100B9000E80FF91FEB58FD4F81819281820F931F5F
:100BA0009093890080938800E091BE018E2FEE0F14
:100BB000990BFC01EE0FFF1FE80FF91FEB58FD4FDB
:100BC000808186FF11C0E091BE018E2FEE0F990B40
:100BD000FC01EE0FFF1FE80FF91FEB58FD4F80815E
:100BE00061E08F730E945002FF91EF91DF91CF91EE
:100BF000BF91AF919F918F917F916F915F914F9135
:100C00003F912F910F900FBE0F901F90189580E489
:100C10009CE990938900809388008FEF8093BE01B8
:100C2000E3CF1092DB011092DA0188EE93E0A0E0AE
:100C3000B0E08093DC019093DD01A093DE01B093DE
:100C4000DF0184E091E09093D9018093D80185EC95
:100C500090E09093E5018093E40184EC90E0909320
:100C6000E7018093E60180EC90E09093E9018093A6
:100C7000E80181EC90E09093EB018093EA0182EC33
:100C800090E09093ED018093EC0186EC90E09093DE
:100C9000EF018093EE011092F1011092F201109297
:100CA000F3011092F401809199028C30F0F591E0FB
:100CB000980F909399028093B20290E0FC01EE0F9E
:100CC000FF1FE80FF91FEB58FD4F88EB9BE0928365
:100CD000818310929D0210929C0286E191E0909394
:100CE0009B0280939A028BE080939E028FEF809309
:100CF0009F028AE08093A00287E08093A10286E0B1
:100D00008093A20285E08093A30284E08093A402F2
:100D10001092A5021092A6021092A7021092A802A9
:100D20001092A90281E00C9474038FEF8093B202B9
:100D3000D0CF789484B5826084BD84B5816084BD51
:100D400085B5826085BD85B5816085BD80916E0069
:100D5000816080936E00109281008091810082609A
:100D600080938100809181008160809381008091D7
:100D700080008160809380008091B10084608093C6
:100D8000B1008091B00081608093B00080917A00C2
:100D9000846080937A0080917A00826080937A00E8
:100DA00080917A00816080937A0080917A008068D7
:100DB00080937A001092C100E091E801F091E9017E
:100DC00082E08083E091E401F091E5011082E091FE
:100DD000E601F091E7018FEC80831092F001E09141
:100DE000EC01F091ED0186E08083E091EA01F09161
:100DF000EB01808180618083E091EA01F091EB0159
:100E0000808188608083E091EA01F091EB0180812C
:100E100080688083E091EA01F091EB0180818F7D11
:100E2000808360E083E00E947E0260E082E00E94B6
:100E30007E0261E08CE00E947E028091B2028C30E2
:100E400008F051C061E089E00E947E028091B20208
:100E5000282F30E0F901EE0FFF1FE20FF31FEB58D0
:100E6000FD4F9081907C996090831092B302109214
:100E7000B4022CE0622F0E949E09829FB0011124CF
:100E800030E020E0AB01420F531FFA01EE0FFF1FCD
:100E9000E40FF51FEB58FD4F908196FD16C02F5FB4
:100EA0003F4F2C30310571F781110FC01092800037
:100EB00082E0809381001092850010928400B19AA4
:100EC00080916F00826080936F00E091B2028E2F5C
:100ED00090E0FC01EE0FFF1FE80FF91FEB58FD4FEC
:100EE00080818064808380E0282E80E0382EC1E0FD
:100EF000D0E092E3E92EF12C24E6C22ED12C38EC7E
:100F0000A32EB12C83E00E9427028C0182E00E9474
:100F100027024C018091D6019091D701892B01F5D0
:100F200081E291E00E94A00482E00E94740369E3E0
:100F300071E08AE992E00E942004E091AD02E23083
:100F400008F021C1E150F0E0E656FD4F8489806849
:100F50000E946E0366E571E08AE992E00E94200437
:100F60000115110509F035C18091D4019091D50189
:100F70008114910409F054C1892B09F012C1109217
:100F8000D3011092D2011092D1011092D00110928F
:100F9000CF011092CE011092CD011092CC0110928F
:100FA000CB011092CA011092D7011092D601809104
:100FB000D0019091D1014F9724F0D093D501C093E7
:100FC000D4018091CE019091CF014F9724F0D0931E
:100FD000D301C093D2012091CA013091CB018091FD
:100FE000C8019091C901821793070CF047C0892866
:100FF00009F044C060E08CE00E94500288E491E077
:101000000E94A00482E00E9474036FE571E08AE907
:1010100092E00E942004E091AD02E23008F0EAC0C4
:10102000E150F0E0E656FD4F848980680E946E032F
:101030006DE671E08AE992E00E94200490E080E091
:101040000E948C001092CB011092CA011092D5011F
:101050001092D4011092D3011092D2011092D101BA
:101060001092D0011092CF011092CE011092CD01BA
:101070001092CC011092D7011092D6018091D40128
:101080009091D5010197A1F58091D2019091D30162
:10109000019771F58091D0019091D1018135910531
:1010A0000CF4AAC0B092C901A092C801D093D70194
:1010B000C093D60187E791E00E94A0048091CA0105
:1010C0009091CB0101969093CB018093CA0161E08E
:1010D0008CE00E94500288E790E00E948C0082E041
:1010E0000E94740368E971E08AE992E00E9420049A
:1010F00069EA71E088ED91E00E9420048091D001BE
:101100009091D1010E9496046FEA71E088ED91E020
:101110000E9420048091CE019091CF010E949604FC
:1011200066EB71E088ED91E00E9420046091D401AB
:101130007091D501072E000C880B990B97FF6CC09E
:101140000E9475046EE171E088ED91E00E94200438
:101150000E94AF022B013C010E94AF026419750985
:1011600086099709683E734081059105A8F321140B
:10117000310409F4C7CE0E945B01882309F4C2CE72
:101180000E940000BFCEE1E0DECE019709F00FCF54
:101190008091CE019091CF0101969093CF018093E1
:1011A000CE018091D4019091D501019709F0FFCE35
:1011B0008091D2019091D301892B09F0F8CE8091D2
:1011C000CC019091CD0101969093CD018093CC01FB
:1011D000EECE0130110529F78114910409F041C0C8
:1011E0008091D0019091D10101969093D10180938B
:1011F000D001D7CFE1E015CF8D3391052CF0D092FF
:10120000C901C092C80152CF4F970CF44FCFF09252
:10121000C901E092C8014ACF4AE00E942F0492CF50
:1012200021E08216910409F0BCCF009709F0ADCF00
:101230001092D3011092D2011092D1011092D001DC
:101240001092CF011092CE011092CD011092CC01DC
:101250001092CB011092CA011092D7011092D601C0
:10126000A0CF81E08816910409F09BCF1092D501A0
:101270001092D401DDCF052E97FB1EF400940E943E
:10128000520957FD07D00E946D0907FC03D04EF4A8
:101290000C94520950954095309521953F4F4F4FF2
:1012A0005F4F089590958095709561957F4F8F4F12
:1012B0009F4F08950E948F09A59F900DB49F900D98
:1012C000A49F800D911D11240895B7FF0C945A0915
:1012D0000E945A09821B930B0895A1E21A2EAA1BA1
:1012E000BB1BFD010DC0AA1FBB1FEE1FFF1FA217D6
:1012F000B307E407F50720F0A21BB30BE40BF50BD3
:10130000661F771F881F991F1A9469F7609570955B
:10131000809590959B01AC01BD01CF010895A29FDE
:10132000B001B39FC001A39F700D811D1124911DB9
:10133000B29F700D811D1124911D0895991B79E0B4
:1013400004C0991F961708F0961B881F7A95C9F755
:1013500080950895EE0FFF1F0590F491E02D0994FC
:04136000F894FFCF2F
:10136400000000009101F1001E01DE014F012D017A
:101374004101000000001A04F100D502D4020D0A54
:101384000045766572797468696E672069732063B5
:101394006C6561722021212100457665727974683B
:1013A400696E67206973200045766572797468698F
:1013B4006E6720697320636C656172212121004589
:1013C400766572797468696E6720697300436C6529
:1013D40061722021212100547261696E2061727250
:1013E4006976656421212120506C656173652062F2
:1013F4006520736166652000547261696E206172B4
:101404007269766564212121007431203D20002019
:0E1414007432203D2000206E31203D2000006B
:00000001FF
